:020000040800F2
:1000000078330020B91B0108F91B0108153A0008D4
:10001000FD1B0108FF1B0108011C01080000000076
:10002000000000000000000000000000031C0108A8
:10003000051C010800000000071C010837D6000855
:100040000B1C01080B1C01080B1C01080B1C0108F0
:100050000B1C01080B1C01080B1C0108ABE4000879
:100060000B1C01080B1C01080B1C01080B1C0108D0
:100070001DDE00080B1C0108F1DD00080B1C010847
:100080000B1C01080B1C01080B1C01080B1C0108B0
:100090000B1C01080B1C01080B1C0108B3E4000831
:1000A0000B1C01080B1C01080B1C01080BF00008BD
:1000B00017F0000823F000082FF00008D3CC000848
:1000C000F5C80008E3CC0008DBCC00080B1C0108D5
:1000D0000B1C010847DE000887DE0008F5DE00087B
:1000E0006DBF00080B1C01080B1C0108DFF80CD0C9
:1000F00013F096F800480047CF3500087833002009
:10010000F0B504460E461546B4FBF5F038B1B4FB25
:10011000F5F72A4631463846FFF7F2FF0646B4FBAC
:10012000F5F005FB1040FCA1085C3070701CF0BDC0
:1001300070B505460C461646022E01DB242E00DD66
:100140000A26002D09DA2D2020703246611C6842F3
:10015000FFF7D6FF0021017006E03246214628460F
:10016000FFF7CEFF00210170204670BD2DE9F05F42
:1001700004464FF0000900E0641C20782028FBD0E2
:1001800020780928F8D04FF07E5820782D2803D108
:10019000DFF8AC83641C03E020782B2800D1641CBA
:1001A00000260FE02178A1F1300012F039FD05465C
:1001B000E449304612F04CFC8246294612F0F0FB2E
:1001C0000646641C2078302802DB20783928E9DDD7
:1001D00020782E281DD1DB4D641C13E02178A1F17D
:1001E000300012F01DFD8346294612F067FC82465E
:1001F000314612F0D5FB0646D249284612F028FCBB
:100200000546641C2078302802DB20783928E5DD9B
:1002100000BF4FF07E572078652802D0207845280F
:1002200034D1641C4FF0000920782D2803D14FF001
:100230000109641C03E020782B2800D1641C0025F0
:1002400006E02078303805EB850100EB4105641CA1
:100250002078302802DB20783928F2DDB5F59A7F46
:1002600001D94FF49A7505E0B749384612F0F0FB12
:100270000746083D082DF7D205E0B249384612F08E
:10028000E7FB07466D1E002DF7D100BFB9F1000F47
:1002900004D03946304612F011FC03E039463046AE
:1002A00012F0D6FB0546414612F0D2FBBDE8F09FA6
:1002B0002DE9F04387B007460E46002001900290DA
:1002C00003900FF288280021384612F01FFD05D256
:1002D0009F49384612F064FB074604E09C493846C3
:1002E00012F0B0FB07469B49384612F0B1FB81463D
:1002F00012F0B5FC0446002C01DD214600E061420D
:1003000008460A2204A9FFF713FF002C03DB202074
:100310008DF8040002E02D208DF8040004A812F0EE
:10032000F0FA01280BD130208DF805008DF8060079
:100330008DF8070004A901A812F0AFFA1FE004A885
:1003400012F0DFFA022809D130208DF805008DF86F
:10035000060004A901A812F0A0FA10E004A812F007
:10036000D0FA032807D130208DF8050004A901A890
:1003700012F093FA03E004A901A812F08EFA01A882
:1003800012F0BFFAC01EC5B22A4601A9304612F0CB
:10039000A2FA002070554146304612F07EFA01A8BC
:1003A0004119304612F079FA304607B0BDE8F083C3
:1003B00010B5044605E014F8011B674A10680FF0F9
:1003C000B5F920780028F6D110BD10B563A0FFF76D
:1003D000EFFF10BD2DE9F04105460C462F4626469D
:1003E000306812F08EFA804631684246386812F062
:1003F000B1FABDE8F0812DE9F04105460027284615
:1004000012F07FFA00F0FF08B8F1000F0CD10024C1
:1004100007E0544830F81420214653A012F0BEFFE4
:10042000641C182CF5DB17E02E46304612F0ABFAB0
:100430000446182C0CDA2021284612F058FA0646F9
:10044000304612F0A0FA0746464820F8147003E040
:10045000182148A012F0A2FFBDE8F0812DE9F04F6D
:1004600087B007460026B046384612F04AFA00F038
:10047000FF09B9F1000F4DD148A0FFF799FF002403
:100480003FE0514901EB04110868002112F034FCEF
:1004900000D138E008F10108611C4CA012F07EFF89
:1004A000494901EB0411086803A9FFF701FF8246DF
:1004B000514648A012F072FF434901EB041148680D
:1004C00003A9FFF7F5FE8246514642A012F066FFEF
:1004D0003D4901EB0411886803A9FFF7E9FE824654
:1004E00051463CA012F05AFF374901EB0411C8688D
:1004F00003A9FFF7DDFE8246514637A012F04EFFFA
:10050000641C0C2CBDDB00BF002002900190009009
:1005100000247EE0A0E0000030313233343536373D
:1005200038394142434445464748494A4B4C4D4E71
:100530004F505152535455565758595A00000000C5
:10054000000080BF0000204120BCBE4C2E000000F7
:100550006F12033A00007A44540A00200D0A232047
:1005600000000000660900206175782025752025AF
:10057000750D0A00496E76616C6964204665617488
:1005800075726520696E6465783A206D75737420A4
:100590006265203C2025750D0A00000043757374C8
:1005A0006F6D206D697865723A200D0A4D6F746F1A
:1005B000720954687209526F6C6C095069746368EF
:1005C000095961770D0A00006C0400202325643A64
:1005D000090000002573090025730D0A00000000C2
:1005E000F84A02EB04125168009812F0D9F9009011
:1005F000F44A02EB04129168019812F0D1F90190CB
:10060000F04A02EB0412D168029812F0C9F9029084
:10061000641C4445E4DBECA0FFF7CAFE002004465E
:1006200011E05DF8240020F000418B46EA4958466D
:1006300012F06CFB01D2E9A000E0E9A08246FFF7CE
:10064000B7FE601C0446032CEBDBAFF28800FFF71B
:10065000AFFE07B0BDE8F08F0522E2A1384612F0E8
:1006600079F950B9002405E00021D64800EB0410C8
:100670000160641C0C2CF7DB8EE00422DBA1384601
:1006800012F068F900282FD12021384612F02FF9F6
:100690000546002DF0D0691C0D46084612F031F9D0
:1006A00000F0FF09002400BFD24850F8240018B918
:1006B000D1A0FFF77DFE16E0CE4850F824104A4640
:1006C000284612F047F960B9204603F02BFBC948D1
:1006D00050F82410CEA012F061FEC5A0FFF7BEFEB8
:1006E00001E0641CE0E757E03D46284612F04BF974
:1006F0000446601E04460C284ADA2021284612F0DF
:10070000F6F805464DB1691C0D460846FFF72EFD6B
:10071000AC4901EB04110860761C2021284612F038
:10072000E6F8054655B1691C0D460846FFF71EFD63
:100730000146A44800EB04104160761C20212846A5
:1007400012F0D5F805464DB1691C0D460846FFF775
:100750000DFD9C4901EB04118860761C2021284680
:1007600012F0C5F805464DB1691C0D460846FFF765
:10077000FDFC944901EB0411C860761C042E03D0E3
:10078000A8A0FFF715FE07E099A0FFF767FE03E0BA
:100790000C21B3A012F002FE00BF5AE72DE9F0478A
:1007A00088B082460027504612F0ABF800F0FF09EF
:1007B000B9F1000F62D1B44812F0F0FDB2486830D0
:1007C00012F0ECFD002450E0C4EBC4017D48C030C1
:1007D0000844807800B94AE0611CAFF2102012F0A2
:1007E000DDFDC4EBC4027748C030805C411CA7A08B
:1007F00012F0D4FDC4EBC4027248C03010444078FB
:10080000411CA2A012F0CAFDC4EBC4026D48C03066
:10081000104490F902109DA012F0C0FDC4EBC40278
:100820006848C0301044C17898A012F0B7FDC4EBFE
:10083000C4026448C030104490F9041093A012F030
:10084000ADFDC4EBC4025F48C030104490F9051000
:100850008EA012F0A3FDC4EBC4025A48C03010446D
:1008600081798BA012F09AFD641C102CACDB00BFC8
:100870006BA012F093FD08B0BDE8F087052259A1E6
:10088000504612F067F888B970214E48C03011F018
:10089000F9FF002407E0002104EB84027E4800EB0E
:1008A00042000181641C082CF5DBF8E104224FA111
:1008B000504612F04FF800282FD12021504612F058
:1008C00016F80546002DF0D0691C0D46084612F0BA
:1008D00018F800F0FF09002400BF464850F8240033
:1008E00018B945A012F05AFD16E0424850F82410FD
:1008F0004A46284612F02EF860B9204603F0D7F990
:100900003C4850F8241042A012F048FD38A0FFF7F0
:1009100045FF01E0641CE0E7C1E109225FA1504608
:1009200012F018F800284CD12021504611F0DFFFBA
:100930000546284611F0E5FF00F0FF09B9F1000F68
:1009400039D15148C83012F029FD57A012F026FDC8
:10095000002604E0711C55A012F020FD761C0C2E20
:10096000F8DB2FA012F01AFD4FF000081FE008F18D
:10097000010150A012F012FD002611E008EB8802E0
:10098000454800EB420000890122B240104201D0EC
:1009900049A000E043A0014648A012F0FFFC761CED
:1009A0000C2EEBDB1EA012F0F9FC08F10108B8F1E7
:1009B000080FDCDB5FE742A1284611F0A9FF0546DE
:1009C0008DE0E0E06C04002053616E69747920636F
:1009D0006865636B3A0900000AD7233C4E4709005B
:1009E0004F4B090072657365740000006C6F6164A1
:1009F000000000002C440108496E76616C69642097
:100A00006D6978657220747970652E2E2E0D0A003E
:100A10004C6F61646564202573206D69782E2E2EDD
:100A20000D0A000057726F6E67206E756D626572F9
:100A3000206F6620617267756D656E74732C206E11
:100A400065656473206964782074687220726F6CC5
:100A50006C207069746368207961770D0A0000006A
:100A60004D6F746F72206E756D626572206D757357
:100A700074206265206265747765656E203120613F
:100A80006E642025640D0A00E05001082564090009
:100A900025640D0A000000009E090020646972654B
:100AA0006374696F6E0000007300000009692564BB
:100AB000000000002564000072000000092573207A
:100AC00020000000284611F05EFF39467F1C4DF8DB
:100AD0002100AFF21401002011F01AFF05460DB1FC
:100AE000032FEFDB0DB9032F03D0FEA012F056FC4D
:100AF000C1E6009801283EDB009808283BDC0198FD
:100B0000012838DB01980C2835DC0298401C02D003
:100B1000029801282FD10098401E00900198401E95
:100B200001900298401C13D1009800EB8001FC4812
:100B300000EB410000890121019A9140084381B2F4
:100B4000009800EB8002F64800EB4200018115E0BE
:100B5000009800EB8001F24800EB41000089012180
:100B6000019A91408843009901EB8102EC4901EB25
:100B70004201088102E0EBA012F010FCAFF2E400A9
:100B8000FFF70CFE8BE0AFF2C801504611F0C0FE3B
:100B900005460CE0284611F0F6FE39467F1C4DF85C
:100BA0002100AFF2E401002011F0B2FE05460DB1C4
:100BB000082FEFDB0DB9082F03D0E34812F0EEFB4E
:100BC00059E60098441E002C66DB102C64DA01986C
:100BD000002861DD019808285EDC029801285BDBB3
:100BE00002980C2858DC039810F1640F54DB03982A
:100BF000642851DC049800284EDB0498FF284BDC65
:100C00000598002848DB0598642845DC06980028EC
:100C100042DB069864283FDCDDE9050188423BDAC7
:100C20000798002838DB0798032835DC0198401E18
:100C3000C1B2C4EBC402C54881540298401EC1B27F
:100C4000C4EBC402C14810444170039841B2C4EBE4
:100C5000C402BE48104481700498C1B2C4EBC402FF
:100C6000BA481044C170059841B2C4EBC402B748F9
:100C700010440171069841B2C4EBC402B348104459
:100C800041710798C1B2C4EBC402B04810448171ED
:100C9000A2A0FFF783FD02E0A2A012F07FFB00BF3D
:100CA000E9E510B50446AAA0FFF782FB012001F098
:100CB0006CFCAEA0FFF77CFB0A200CF09FFD00202F
:100CC0000CF0E8FD10BD2DE9FC4104460D46002660
:100CD000207906283AD2DFE800F003060A0D111445
:100CE000A068067832E0A06890F900602EE0A06865
:100CF00006882BE0A068B0F9006027E0A0680668CD
:100D000024E0A16808686946FFF7D2FA0746394629
:100D10009AA012F043FBBDB1E06811F081FF80465C
:100D20006946FFF7C5FA0746394695A012F036FB2B
:100D3000206911F075FF80466946FFF7B9FA07464A
:100D400039468FA012F02AFBBDE8FC8100BF314676
:100D5000AFF2A02012F022FB25B18AA0D4E9031241
:100D600012F01CFB00BFEFE710B5044687A0FFF7A9
:100D70001FFB10BD2DE9F04F85B00020FFF7F4FFF9
:100D80008EA012F00BFB65A0FFF735FB6F48D03843
:100D90004079401E954A52F8201095A012F0FEFAB4
:100DA0006A49D0390869002111F0A6FF77D00024E4
:100DB0006EE06649C03901EB04110868002111F0AA
:100DC0009BFF00D166E06148C03800EB0410076863
:100DD0005E48C03800EB0410D0F804805B48C0388F
:100DE00000EB0410D0F808905848C03800EB04100D
:100DF000D0F80CA0611C81A012F0D0FA0021384676
:100E000011F07AFF03D2AFF2483012F0C7FA01A90D
:100E10003846FFF74DFA0146009058A012F0BEFA8E
:100E20000021404611F068FF03D2AFF26C3012F09F
:100E3000B5FA01A94046FFF73BFA014600904FA0E2
:100E400012F0ACFA0021484611F056FF03D2AFF27F
:100E5000903012F0A3FA01A94846FFF729FA01469B
:100E6000009046A012F09AFA0021504611F044FF7B
:100E700003D2AFF2B43012F091FA01A95046FFF755
:100E800017FA01460090AFF6B00012F087FA641C22
:100E90000C2C8ED300BF611C5AA012F07FFA2B4895
:100EA000D03890F8D20000281AD00024F2E0C4EB29
:100EB000C40126480844807800B9EEE0611C56A0C1
:100EC00012F06CFAC4EBC4022048805C411C55A0AF
:100ED00012F064FAC4EBC4021C4810444078A3E04A
:100EE000E0E0000057726F6E67206E756D6265728C
:100EF000206F6620617267756D656E74732C206E4D
:100F00006565647320736572766F20696E707574A1
:100F100020646972656374696F6E0D0A00000000D9
:100F20009E0900204552523A2057726F6E67207218
:100F3000616E676520666F7220617267756D656EA0
:100F400074730D0A00000000F85101082C05002000
:100F5000526573657474696E6720746F206465668A
:100F600061756C74732E2E2E0D0A00005265626F2F
:100F70006F74696E672E2E2E00000000257300002E
:100F80002025730020256420256400004166726FCF
:100F9000333220434C492076657273696F6E20327C
:100FA0002E33204665622031322032303135202FF9
:100FB0002032323A35373A323500000043757272CA
:100FC000656E7420436F6E6669673A20436F70796F
:100FD0002065766572797468696E672062656C6FEA
:100FE0007720686572652E2E2E0D0A002C440108AC
:100FF0006D697865722025730D0A0000636D69784C
:1010000020256400636D697820256420302030201D
:101010003020300D0A000000736D697820256420AF
:101020000000000025642000411CAFF2080012F00F
:10103000B5F9C4EBC402F848104490F90210AFF2BD
:101040001C0012F0ABF9C4EBC402F3481044C178A1
:10105000AFF2300012F0A2F9C4EBC402EE48104423
:1010600090F90410AFF2440012F098F9C4EBC402F6
:10107000E948104490F90510AFF2580012F08EF9CB
:10108000C4EBC402E44810448179AFF2FC5012F082
:1010900085F9641C102CFFF40AAF00BF611CDFA0AF
:1010A00012F07CF9002414E000250FE004EB840129
:1010B000DF4800EB410001890120A840014204D033
:1010C0006A1C611CDBA012F069F96D1C0C2DEDD3BC
:1010D000641C082CE8D301F08CFA0646002400BFFB
:1010E000DB4850F8240000B907E0D94850F8241034
:1010F000D8A012F053F9641CF2E700BF002400BF2F
:10110000D34850F8240000B90BE00120A040304241
:1011100005D0CF4850F82410D2A012F03FF9641C3B
:10112000EEE700BF002407E0D248015DBA48B230C4
:10113000005D01AA1154641C082CF5D3002001A9FC
:101140000855CDA012F02AF9002415E004EB840024
:10115000CC4901EB800B04EB84000A4652F82010C6
:10116000C9A012F01BF900215846FFF7ACFDAFF201
:101170000820FFF71DF9641C8C2CE7D305B0BDE8EF
:10118000F08F10B50446C3A0FFF712F9012100202B
:1011900000F091FFC2A0FFF70BF90A200CF02EFB24
:1011A00000200CF077FB10BD10B50446C0A0FFF77F
:1011B000FFF80020C4490870C4490860C449087099
:1011C00002F063FC2046FFF7DCFF10BD2DE9F04183
:1011D0000546284611F095FB064601F00AFA074637
:1011E000DEB9BCA0FFF7E4F8002400BF984850F82F
:1011F000240000B90BE00120A040384205D09448FB
:1012000050F82410B8A012F0C9F8641CEEE700BF33
:10121000AFF2AC20FFF7CCF858E03246B3A1284635
:1012200011F098FBC0B9B3A0FFF7C2F8002400BFCB
:10123000874850F8240000B907E0854850F824108A
:10124000A9A012F0ABF8641CF2E700BFAFF2E820EF
:10125000FFF7AEF8BDE8F0814FF0000828782D28A0
:1012600003D14FF001086D1C761E002400BF7848A2
:1012700050F8240018B9A5A0FFF79AF824E07448A4
:1012800050F824103246284611F064FBD0B9B8F16A
:10129000000F08D0012101FA04F001F0A4F9A2A086
:1012A000FFF786F807E0012101FA04F000F071FF72
:1012B000A0A0FFF77DF8664850F824106BA012F04C
:1012C0006DF801E0641CD2E700BF00BF00BFC1E7BA
:1012D00010B5044608F0CDFD401C03D198A0FFF7DF
:1012E00067F802E0A0A0FFF763F810BD70B50546EF
:1012F0000024A5A0FFF75CF800BF0DE004EB44005C
:10130000A74B03EB8000426804EB440053F8201025
:10131000A4A012F043F8641C112CEFD370BDFEB5ED
:101320000546284611F0EDFA0646082E20D1002485
:1013300004E0285D11F064FA2855641C082CF8D3E9
:10134000002410E0295D4B4811F0D1FA30B1295D3D
:101350002A19501C11F0CBFA00B903E093A0FFF753
:1013600027F8FEBD641C082CECD3284600F0CBFD0A
:1013700096A0FFF71DF8002407E03E48015D2648CF
:10138000B230005D0DF80010641C082CF5D300206D
:101390000DF80400694635A012F000F800BFE0E740
:1013A00070B50646304611F0ACFA054655B91A48F4
:1013B000D0384079401E8B4A52F820108AA011F094
:1013C000EDFF70BD2A4649A1304611F0C3FAB8B905
:1013D0008AA0FEF7EDFF002400BF824850F82400E9
:1013E00000B907E07F4850F824103FA011F0D6FF65
:1013F000641CF2E700BFAFF29040FEF7D9FFE0E7D0
:10140000002400BF774850F8240020B9AFF6182018
:10141000FEF7CEFF2EE1FBE02C050020736D69780E
:1014200020256420302030203020300D0A000000BC
:101430009E090020736D6978206469726563746920
:101440006F6E202564202564202D310D0A000000D8
:101450009044010866656174757265202D25730DD1
:101460000A000000666561747572652025730D0AB7
:1014700000000000595201086D61702025730D0AAB
:1014800000000000F0450108736574202573203DBD
:1014900020000000536176696E672E2E2E0000003A
:1014A0000D0A5265626F6F74696E672E2E2E0000F2
:1014B0000D0A4C656176696E6720434C49206D6F5B
:1014C00064652E2E2E0D0A002C040020040000203E
:1014D00000000020456E61626C6564206665617481
:1014E000757265733A200000257320006C6973746F
:1014F00000000000417661696C61626C6520666580
:101500006174757265733A2000000000496E76615F
:101510006C69642066656174757265206E616D65C5
:101520002E2E2E0D0A00000044697361626C656402
:1015300020000000456E61626C65642000000000C0
:101540004572726F723A20456E61626C6520616E01
:101550006420706C756720696E204750532066695F
:101560007273740D0A000000456E61626C696E67EB
:101570002047505320706173737468726F75676889
:101580002E2E2E0D0A000000417661696C61626C9E
:101590006520636F6D6D616E64733A0D0A00000023
:1015A0002445010825730925730D0A004D757374D0
:1015B00020626520616E79206F72646572206F66AB
:1015C0002041455452313233340D0A004375727252
:1015D000656E742061737369676E6D656E743A2011
:1015E000000000002C44010843757272656E74207F
:1015F0006D697865723A2025730D0A00417661693C
:101600006C61626C65206D69786572733A200000C8
:10161000FE4850F824102A46304611F09BF938BB9A
:10162000601CFB494871F94850F82410F9A011F0EA
:10163000B5FEF7484079082803D0F54840790E28D0
:1016400015D13220F84981F82500002081F82000CA
:101650001E21F5480171142181732D21017632215B
:1016600081761E21C171142141742D21C17601E0C2
:10167000641CC7E600BF00BFA3E62DE9F047804623
:101680000024002500260027404611F03AF9814643
:10169000B9F1000F04D1E5A011F080FEBDE8F0879C
:1016A000AFF21421404611F033F9074615E016B1A8
:1016B000012E0AD104E0384611F065F9044604E031
:1016C000384611F060F9054600BF00BF761CAFF246
:1016D0004021002011F01CF90746002FE7D1002C13
:1016E00001DB0C2C04DB0C21DFA011F057FED5E749
:1016F000022E07DAE64830F914202146E5A011F061
:101700004DFECBE7B5F57A7F02DBB5F5FA6F03DD69
:10171000E6A011F043FEC1E72A462146ECA011F0F5
:101720003DFE28B2DA4921F8140000BFB6E770B5D3
:101730000546284611F0E5F8C6B236B9B44890F827
:10174000C014EAA011F02AFE70BD284611F01BF962
:101750000446002C0BDB022C09DCAD4880F8C044A9
:101760000021084600F0A7FCDFA0FFF7E0FF00BF64
:10177000EAE710B50446E349086821460DF0D6FFB4
:1017800010BD03B50179062917D2DFE801F0030483
:1017900008090E1200BF0199826811700DE000BFA8
:1017A000019909B28268118007E00199826811608D
:1017B00003E001998268116000BF00BF0CBD2DE9F4
:1017C000F84F07464FF00008C246C146384611F0B0
:1017D00098F8054625B1012D21D138782A281ED147
:1017E000C9A0FEF7E5FD002416E004EB8400CC4917
:1017F00001EB800604EB84000A4652F82010AFF299
:10180000743011F0CBFD29463046FFF75CFAAFF695
:10181000A800FEF7CDFD641C8C2CE6D393E0C1A19B
:10182000384611F046F85FEA000868D008F1010870
:101830006D1E404611F0A7F882464046FEF796FC22
:101840008146002455E004EB8400B54901EB800695
:1018500004EB8401B24A52F8210011F052F8834699
:1018600004EB8400AE4A52F820105A46384611F074
:1018700071F800283CD104EB8401A94A02EB8101F4
:10188000C86811F0CDF98346494611F035FA2AD8D7
:1018900004EB8401A24A02EB8101086911F0C0F94E
:1018A0008346494611F032FA1DD804EB84009C4966
:1018B00001EB80000079052802D1CDF8009001E00D
:1018C000CDF800A030460099FFF75BFF04EB8400E1
:1018D000934A52F8201094A011F060FD0021304688
:1018E000FFF7F1F902E093A0FEF762FDBDE8F88F83
:1018F000641C8C2CA7D399A0FEF75AFD23E000248A
:101900001FE004EB8401864A52F82100394610F0AA
:10191000D0FFA8B104EB8400814901EB800604EB01
:1019200084000A4652F82010AFF2A04011F036FDB4
:1019300000213046FFF7C7F9AFF6D41011F02EFDA5
:10194000641C8C2CDDD300BFD0E72DE9F0410746A5
:101950000BF094FE4FF47A71B0FBF1F687480378F0
:1019600087480288314687A011F018FD00F02FFE4D
:101970000546944800689449B0FBF1F69348944AB0
:10198000126850F82210324692A011F007FD002490
:1019900000BF9B4850F8240000B90DE00120A04092
:1019A000284206D0964850F82410AFF2C44011F0F7
:1019B000F5FC601CC4B2ECE700BF022000F0F2FDB1
:1019C000A8B19048904A127850F822108FA011F0D8
:1019D000E5FC8D480078022809D14A48007D08B10D
:1019E0006F2000E06E2001468BA011F0D7FCAFF60F
:1019F0008820FEF7DDFC0BF04CFA064640F2C443AB
:101A000032468648018886A024E100002C44010863
:101A10005C0400204D697865722073657420746FD2
:101A20002025730D0A00000020090020557361670E
:101A3000653A0D0A6D6F746F7220696E6465782067
:101A40005B76616C75655D202D2073686F77205B18
:101A50006F72207365745D206D6F746F7220766194
:101A60006C75650D0A0000004E6F20737563682069
:101A70006D6F746F722C207573652061206E756DAB
:101A8000626572205B302C2025645D0D0A00000029
:101A9000A40A00204D6F746F7220256420697320A2
:101AA0007365742061742025640D0A00496E7661A7
:101AB0006C6964206D6F746F722076616C75652C33
:101AC00020313030302E2E323030300D0A00000000
:101AD00053657474696E67206D6F746F722025642E
:101AE00020746F2025640D0A000000004375727297
:101AF000656E742070726F66696C653A2025640D9E
:101B00000A000000540A002043757272656E74204A
:101B100073657474696E67733A200D0A00000000E3
:101B2000F04501083D0000002573207365742074A2
:101B30006F2000004552523A2056616C7565206155
:101B4000737369676E6D656E74206F7574206F6650
:101B50002072616E67650D0A000000004552523A1E
:101B600020556E6B6E6F776E207661726961626C64
:101B700065206E616D650D0A0000000012010020F5
:101B80007001002053797374656D20557074696D10
:101B9000653A202564207365636F6E64732C20564C
:101BA0006F6C746167653A202564202A20302E31DD
:101BB0005620282564532062617474657279290D5A
:101BC0000A000000D403002040420F001445010821
:101BD000CC00002048617264776172653A202573F9
:101BE00020402025644D487A2C2064657465637418
:101BF00065642073656E736F72733A200000000095
:101C0000D4440108F4440108C8010020414343487A
:101C1000573A2025730000002E256300F0000020B5
:101C20004379636C652054696D653A2025642C20E6
:101C3000493243204572726F72733A2025642C201A
:101C4000636F6E6669672073697A653A2025640D53
:101C50000A00000011F0A2FBBDE8F0812DE9FF4170
:101C60008548007838B901208349087083A0FEF7C1
:101C70009FFBFEF7AAFBF5E08E4908680DF076FDA4
:101C80000446092C01D03F2C74D1002600278A4835
:101C9000D0F80080894D0FE08748006838B1864849
:101CA00029680268864810F055FE00B103E006B9C5
:101CB0002E462F4600BF0C358048CC308542EBD3F2
:101CC0008EB300BF7C4930680968405C7A4A396845
:101CD0001268895C884200D026E07749306809683C
:101CE000405C90B9744800682E280ED220217248BA
:101CF00002680068401C704B1860714881540020D5
:101D00006F491A46126888540EE06B4930680968BA
:101D1000405C6B49684A1268885467480068401CF8
:101D200065490860CEE700E000BF6348006808B17D
:101D3000BE4211D063A0FEF73BFB354606E02868A3
:101D4000FEF736FB0920FFF714FD0C35BD42F6D92E
:101D5000FEF73BFB4FF0000806E0594911F8080078
:101D6000FFF707FD08F10108534800688045F4D3E8
:101D700077E0FFE75048006830B9042C04D15048A0
:101D8000FFF712FABDE8FF810C2C05D14FA0FEF73A
:101D90000FFBFEF71AFB64E047480068002836D0C6
:101DA0000A2C01D00D2C32D10025AFF64460FEF78D
:101DB000FFFA00204249404A1268885408460190C0
:101DC0000020029044480C2311223C49009001A8B5
:101DD00010F01CFD05464DB1286810F092FD384901
:101DE0000844461C3046A968884702E03BA0FEF73D
:101DF000DFFA3021324810F045FD00202E490860FE
:101E00001D48007800B9BDE7FEF7DFFA29E07F2C16
:101E10000ED12948006820B3002127480068401EE1
:101E2000254A1060264A115435A0FEF7C1FA18E081
:101E300021480068302814D2202C12DB7E2C10DCC4
:101E40001D48006810B9202C00D10BE01A48016829
:101E50000068401C184A1060194844542046FFF797
:101E600088FC00BF134908680DF079FC00287FF456
:101E700003AF00BF86E70000000000200D0A456E9A
:101E8000746572696E6720434C49204D6F64652C00
:101E900020747970652027657869742720746F2015
:101EA00072657475726E2C206F72202768656C7075
:101EB000270D0A00540A00200400002024450108D0
:101EC0002C0400200D1B5B4B000000001B5B324A02
:101ED0001B5B313B31480000D50300084552523AA4
:101EE00020556E6B6E6F776E20636F6D6D616E64E3
:101EF0002C20747279202768656C70270000000020
:101F000008200800704770B5064634460CE021787A
:101F1000FE4810F0ECFC05462DB1A01BC1B2FB48F9
:101F20002A1AFB488154641C20780028EFD170BD28
:101F300010B5F84900230878492801D0002010BDC9
:101F40004888A0F58064C43C07D10879BE2804D134
:101F500040F2C240405CEF2801D00020EFE70A4683
:101F600002E010784340521C01F2C4408242F8D390
:101F70000BB10020E3E70120E1E710B5FFF7D8FF40
:101F800010B90A200BF046FC40F2C442E149E24895
:101F900010F05FFCE04890F8C004022803DD002147
:101FA000DD4880F8C014DC4890F8C00400EB8012D3
:101FB000D748323000EB82014FF48272D74810F0DC
:101FC00048FC10BD70B5002416E0D44890F82010ED
:101FD00004FB04F01938484300F6C4106043CF49AD
:101FE000C97F484340F6C41190FBF1F000B2CC49E0
:101FF00021F81400601CC4B2072CE6DB00244BE07F
:1020000004EB8402C54B93F82130C3EB420001215D
:10201000002805DDC14A92F82120C2F16402D1B244
:10202000002802DABD4A92F82110BC4A92F8222018
:1020300000FB00F35A4301FB01F392FBF3F2B74BB1
:1020400093F82230C3F164031A4442430A2392FBFB
:10205000F3F2B24B93F821300A2505FB032212B2AA
:10206000B04B23F81420AC4AB2F84221AA4BB3F883
:102070004031D21AAB4B33F914305A434FF47A73D0
:1020800092FBF3F2A44BB3F840311A4412B2A54BC1
:1020900023F81420601CC4B20C2CB1DB9F490878D3
:1020A00003F006F906F0F4FA70BD10B5FFF765FF0E
:1020B000FFF788FF10BD2DE9F047074688464FF02F
:1020C000000949209449087040F2C4404880BE206D
:1020D0000871EF21904880F8C214002180F8C314E1
:1020E000B8F1000F0DD0014691F8C01401EB811238
:1020F00000F5DA7101EB82004FF48272874910F02B
:10210000A8FB854C03E0207880EA0909641C864816
:102110008442F8D3804880F8C3940FF028FB4FF036
:10212000030A1EE034200FF030FD7A480FF05AFB0E
:102130007E480FF057FB0646002507E0764A5159C6
:10214000744AA8180FF0EDFB06462D1D40F2C4405E
:10215000854201D2042EF1D0042E00D104E0AAF170
:10216000010ABAF1000FDDD100BF0FF00CFB042E05
:1021700002D1FFF7DDFE10B90A200BF04BFBFFF791
:1021800094FF27B1012214210F2002F0AFFABDE81D
:10219000F0876149896801435F4A91607047002078
:1021A0005D49886070471CB561A103C9CDE9000194
:1021B00040F2C441584810F065FB4FF48271574813
:1021C00010F060FB49205449087003204871FFF764
:1021D000E6FF4FF48070FFF7DCFF00214E4880F8E7
:1021E000C0144FF416704C49A1F86201FA20A1F80E
:1021F00064012A20A1F860010020A1F86A010021F1
:102200004548A0F86C11A0F86E110020424981F8F1
:10221000530181F85401012081F855010020A1F8F3
:102220005601A1F85801A1F85A0181F85D0181F821
:102230005E014FF4FA70A1F86801012081F85C0199
:10224000202081F866014FF4C870A1F878016E2053
:1022500081F87D012B2081F87E01212081F87F010A
:10226000232081F88001002081F8810181F88A0112
:1022700081F88B0181F8AE0181F8AF0181F8B001DE
:1022800040F2DC50A1F88E0140F24C40A1F89001E0
:1022900040F26C70A1F89201002081F894010120B5
:1022A00081F8950181F896014FF47A70A1F8400108
:1022B00040F23A70A1F842014FF47A70A1F844015B
:1022C00040F27E50A1F8460140F2EA50A1F84801E0
:1022D00040F2B450A1F84A013220A1F84C01C000EC
:1022E000A1F84E013220A1F85001052081F87601B5
:1022F000002081F89E0181F89F014FF4E130C1F880
:10230000A4014FF41650C1F8A80115E05952010874
:10231000DE05002000F801085C04002020090020F0
:10232000AC0C0020BA0C00202009002000FC0108A1
:102330001E1E646464646464002081F8AC0181F84A
:10234000AD0140F6AC5088810020887381F8970178
:1023500040F6FF70A1F89A010020A74908704420B8
:1023600048700220C872232048754421A248817019
:1023700002210173232181755521C1702D214173E3
:102380000021C175172101710021817301760B2194
:1023900041710021C17341761421817108210174BA
:1023A0002D2181760E21C171142141745021C176F5
:1023B0004A2101720621817450210177282141723E
:1023C0001E218172022101750F2181771E208A4909
:1023D000C877412081F82000002081F8230081F88F
:1023E000240081F8250040F2DC50C884322081F8B6
:1023F0002100002081F82200488500217E48818547
:1024000000207D4908850A2081F82E00282081F8C7
:102410002F0081F83000152081F83100774848639B
:10242000774888637748C86377480864012081F853
:102430004400192081F8450074A0FFF764FD0020D6
:102440006D4981F8760081F87700282081F87800BE
:10245000002081F8790081F87C004FF44870A1F8E1
:102460007A000A2081F8CE00C82081F8CF004FF40E
:102470009660A1F8D00040F2D930A1F8D200002433
:1024800021E04FF47F7104EB84025B487E3020F83A
:1024900012104FF4FA6104EB840200EB4200418019
:1024A00040F2DC5104EB840253487E3000EB4200E2
:1024B00081801DF8041004EB84024F487E3000EB4D
:1024C00042008171641C082CDBDB01204A4981F841
:1024D000D40081F8D50081F8D600C820A1F8D80032
:1024E000142081F8DA001E2081F8DB00012081F839
:1024F000DC006420A1F8DE004FF49670A1F8E00043
:102500002820A1F8E2004FF07C50C1F8E400C1F8A7
:10251000E8001420A1F8EE000F20A1F8F000A1F8C7
:10252000F200A1F8F40040F26C70A1F8F60040F25D
:10253000DC50A1F8F80040F21450A1F8FA0008208D
:10254000A1F8FC004FF07E50C1F800015221324842
:1025500080F8C114002406E000212F48103000EB61
:1025600004100160641C0C2CF6DB00240AE004EB70
:1025700084122A4901EB82004FF482721E4910F046
:1025800068F9641C032CF2DB1CBD10B50446FFF790
:10259000CFFC00B12CB1FFF706FE00210846FFF783
:1025A0008AFD10BD01461E480068084201D0012086
:1025B00070470020FCE71A4909680143184A116076
:1025C0007047174909688143154A116070471448DC
:1025D00000687047014610488068084201D0012019
:1025E00070470020FCE70C49896881430A4A9160E2
:1025F0007047094880687047200900209A99193F60
:10260000F6287C3F3D0A773F0000A04041455452E8
:1026100031323334000000005C040020100600203A
:10262000080000202DE9F041FE4991F8450010F026
:1026300000FB8046FC4910F00BFA064611F034FA14
:102640000546FA48008810F0F4FA0746294610F0CB
:10265000FFF9044611F0E8FA00B2F5490880F348A2
:10266000008810F0E6FA05462946F24810F026FAEE
:102670000446F14910F022FAF0490860E949B1F83E
:102680007A0010F0D6FA05462946ED4810F016FA01
:102690000446EC4910F0DCF9EB490860E148016CB4
:1026A000EA4810F0D5F9044621464FF07C5010F06E
:1026B00005FAE74908600820FFF774FF08B104F045
:1026C0002CFABDE8F081002801DD024600E042421C
:1026D0008A4201DA002006E0002801DD401A02E00B
:1026E000002800DA084470472DE9F04F95B0054600
:1026F0000C4695E8070012AB07C3206811F0D4F927
:102700000890206811F0B6FD0746606811F0CCF91A
:102710000646606811F0AEFD8046A06811F0C4F96D
:102720008246A06811F0A6FD83465046089910F035
:102730008FF907905846089910F08AF9069051468B
:10274000384610F085F905905946384610F080F962
:1027500004903146504610F07BF9099086F000490C
:102760005946484610F074F90A90CDF82C8041463D
:10277000059810F06DF98146069910F011F90C904A
:102780004146049810F064F98146079910F05DF90C
:102790000D9087F000493146484610F059F90E90E7
:1027A0004146079810F054F98146049910F04DF90C
:1027B0000F904146069810F04BF98146059910F0AC
:1027C000EFF810903046089910F042F911900F99E7
:1027D000149810F03DF903900C99139810F038F903
:1027E00002900999129810F033F90190029910F0B3
:1027F000D7F88146039910F0D3F8286010991498FF
:1028000010F026F903900D99139810F021F9029019
:102810000A99129810F01CF90190029910F0C0F872
:102820008146039910F0BCF868601199149810F073
:102830000FF903900E99139810F00AF902900B9972
:10284000129810F005F90190029910F0A9F881464C
:10285000039910F0A5F8A86015B0BDE8F08F2DE938
:10286000F04387B004460025204610F0E2F9064602
:10287000784910F0EDF805467748006880F0004090
:1028800004907548406880F0004005907348B0F9A6
:10289000000010F0C5F980F000466349304610F0A2
:1028A000D7F806906E49B1F9000010F0B9F901901F
:1028B0006B49B1F9020010F0B3F902906849B1F91F
:1028C000040010F0ADF9039004A901A8FFF70CFF74
:1028D000544890F84400012828D162484078B8B99B
:1028E00061490868C11700EB91615F4A1268A2EB69
:1028F000A1115D4A11601046006810F091F9074679
:10290000039910F04DF8064610F0A9F956490860F1
:1029100055480668F11706EB9161881110F080F9AF
:102920000746039910F091F8039008E03F480088AB
:1029300010F07FF90646039910F087F803904B4991
:102940000398096810F07EF88046294640480068E0
:1029500010F026F881464946284610F0AFF80746A1
:10296000414610F075F8064640480168304610F0C0
:1029700017F83E490860019811F056F906462948B3
:1029800090F830103046FFF79EFE39490968084438
:1029900037490860029811F047F90646214890F837
:1029A00030103046FFF78FFE3149496808443049FE
:1029B00048602E48006811F037F90646194890F82B
:1029C0002F103046FFF77FFE2949896808442849BF
:1029D0008860284800682044264908602648006826
:1029E000401C2549086007B0BDE8F0832DE9F04F91
:1029F00087B004461849086811F056F80690164941
:102A0000086811F037FC05901349486811F04CF83C
:102A100004901149486811F02DFC0390A0680399B7
:102A20002CE000002009002035FA8E3CC601002071
:102A3000140000200AE81C4100401C46C000002091
:102A4000000061444C3D0F44C4000020DB0F4940AE
:102A5000C8000020BD37863560000020F801002046
:102A6000AC000020740C00206C00002070000020DE
:102A70003C0A00200C000020100000200FF0E8FFAE
:102A8000834606990FF0E4FF8146606805990FF0D0
:102A9000DFFF019003990FF0DBFF83462068049964
:102AA0000FF0D6FF594602900FF07AFF8246494652
:102AB0000FF076FF0646A06805990FF0C9FF814622
:102AC000606806990FF0C4FF824649460FF0BAFFCE
:102AD00007463146384610F0BDFEFD4902900FF022
:102AE000B7FF8346FB490FF0E9FF8246FA480168C9
:102AF00050460FF055FF8146F8490FF0DFFF804642
:102B0000404611F091F805B2002D02DA05F5B470D7
:102B100005B2284607B0BDE8F08F2DE9F05F044606
:102B20000D46A16808460FF093FF8146616808468C
:102B30000FF08EFF8246216808460FF089FF83461A
:102B400051460FF02DFF804649460FF029FF0746FA
:102B500011F056FC06460021304610F0CDF80ED09C
:102B6000314620680FF0AAFF2860314660680FF0F8
:102B7000A5FF68603146A0680FF0A0FFA860BDE81F
:102B8000F09F2DE9F04F87B000250AF05AFD064668
:102B9000D3480068301A0690069810F04AF80746A5
:102BA000D048C16838460FF053FF0590CC48066006
:102BB00000245CE0CC4931F9140010F031F80746EC
:102BC00005990FF045FF02A941F82400C74890F885
:102BD0002E0000283CDDC54991F82E0010F029F8A0
:102BE000834659464FF07E500FF068FF8146C0493A
:102BF00031F9140010F014F8824649460FF028FF0E
:102C00000746BA4991F82E0010F013F8834659464A
:102C10004FF07E500FF052FF82464FF07E510FF082
:102C200014FF8146B34850F8241048460FF010FFB7
:102C3000804639460FF0B4FEAE4941F8240051F801
:102C4000240010F00CF800B2AB4921F8140005E0A4
:102C5000A74830F81400A84921F81400A64830F914
:102C60001400A54931F9141000FB0155641C032C14
:102C7000A0DB64206843A1490988494390FBF1F532
:102C800002A99F48FFF730FDA8B2482835DDA8B259
:102C9000852832DA00242EE09A49B1F862010FF05B
:102CA000C8FF82464FF07E510FF07AFE81464946BA
:102CB0004FF07E500FF002FF07468F4931F91400A4
:102CC0000FF0AEFF82468F49B1F862010FF0B1FFFD
:102CD00083468B4850F8241058460FF0B9FE8146C1
:102CE00051460FF05DFE804639460FF0B1FE844933
:102CF00041F82400641C032CCEDB8348B0F90000AB
:102D00000FF08EFF07467E48816838460FF0F4FFCB
:102D100001D2012000E000207C494873784A916884
:102D2000506810F097FD7A490860754A916890687C
:102D30000FF08EFE8246724A516850680FF088FE8E
:102D4000834651460FF02CFE074611F059FB804692
:102D50006B48006880F000494146484610F07AFD13
:102D60006B49486008686B490FF072FE074610F027
:102D70005BFF00B2684908806549486865490FF003
:102D800067FE074610F050FF00B2634948800820F4
:102D9000FFF708FCE0B302A96048FFF7A5FC002498
:102DA0002EE05849B1F864010FF043FF82464FF01E
:102DB0007E510FF0F5FD814649464FF07E500FF0F1
:102DC0007DFE0746564931F914000FF029FF82466F
:102DD0004C49B1F864010FF02CFF83464F4850F87E
:102DE000241058460FF034FE814651460FF0D8FDAE
:102DF000804639460FF02CFE484941F82400641CF7
:102E0000032CCEDB4548FFF7F1FD464908800DE075
:102E1000FFE702A94448FFF767FC43490846FFF76C
:102E20007CFE4148FFF7E2FD3E4908800698FFF727
:102E300016FD2E4890F87C0000287FD0304A91681B
:102E400090680FF005FE2E4A0190516850680FF00F
:102E5000FFFD83462A4A116810680FF0F9FD5946B4
:102E600000900FF09DFD824601990FF099FD81467B
:102E700011F0C6FA07462249886839460FF01EFE4F
:102E800080462A4940460FF037FF03D800202849E2
:102E9000088064E0404610F04DFC824625480168F9
:102EA00050460FF0D5FD814610F0BEFE0746B7F53F
:102EB000617F01DD4FF4617738460FF0B1FE1E49A6
:102EC00000900FF0FBFD834611F0D4F9824636E006
:102ED0000000E144DB0F49404C000020000020418D
:102EE00080000020740E0020A00000202009002097
:102EF000A6000020300A0020AC000020C6010020FF
:102F0000480A00205C04002014000020740C0020FB
:102F1000600000204C3D0F445C000020240A00208B
:102F2000B2000020F8010020740000208FC2753C20
:102F300048000020C4000020EFB6B04410E0FE4975
:102F400091F87C000FF075FE514601900FF080FD66
:102F5000814610F069FE00B2F849088000BF00BF4A
:102F600007B0BDE8F08F10B503F0CFFD0220FFF7EA
:102F700019FB20B103F03CFCFFF703FE04E0002046
:102F8000EF49088048808880EE484079012812D1B6
:102F9000ED48B0F90410ED48B0F9000001EB400035
:102FA000032190FBF1F000B2E9498880084680884F
:102FB000E649088003E0E4488088E5498880E248E3
:102FC0000088E3490880E0484088488010BD002020
:102FD000E049086048608860DF490860DF490860B0
:102FE00070472DE9F04F89B00AF02BFB0890DC48C0
:102FF000B0F90000002803DDD948B0F9000003E073
:10300000D748B0F900004042D549B1F90210002973
:1030100003DDD349B1F9021003E0D149B1F902103F
:10302000494288420DDDCE48B0F90000002803DD9A
:10303000CB48B0F9000011E0C948B0F900004042A7
:103040000CE0C748B0F90200002803DDC448B0F91D
:10305000020003E0C248B0F90200404206B2C14992
:1030600008980968471A46F2A810874203D2002040
:1030700009B0BDE8F08FBB4908980860BA480088DD
:10308000002841DDB9490868C11700EB5171B74A02
:103090001268A2EBE101B54A1160A74890F831002F
:1030A000401EB3490968B1FBF0F0114609680844B5
:1030B000114608600846D0F800B04FEAEB710BEB00
:1030C0005171C8100FF0ACFDAA4900900FF0F6FC4A
:1030D000A949019010F0C0FD4FF07E5102900FF011
:1030E000B4FCA64903900FF0B3FC04900FF0B7FDB9
:1030F000A34908600020A3490860A34908609A48D2
:103100000088401E984908808B4890F83100401E86
:1031100097490968B1FBF0F000900FF08AFD8346F3
:1031200094490FF0CBFC9449019010F095FD4FF0BD
:103130007E5102900FF089FC904903900FF088FCBB
:10314000049010F071FD06908D4906980968401AA8
:1031500006907948416B4FF07E500FF073FC02905F
:1031600006980FF05DFD019002990FF071FC04903C
:10317000864800680FF054FD02906F48416B02983A
:103180000FF066FC039004990FF00AFC834610F0E0
:103190004BFD7E490860FA2E04DD4FF0FF307C497C
:1031A000086018E030460FF03BFD7A4901900FF0BF
:1031B0004CFC0390764800680FF032FD02900399B2
:1031C0000FF046FC734904900FF078FC83460FF033
:1031D00046FD6F4908606E48006800280FDD6C48A6
:1031E0000068C8280BDA6948006869490968401A0C
:1031F00069490860664800686449086039E06348C6
:10320000006865490968401A6049086060480068BC
:1032100000282EDD5E490968C1F596700FF000FDAB
:1032200083465E490FF04AFC5D4908600846016824
:103230004FF07E500FF006FC0290544800680FF0EB
:10324000EFFC019002990FF003FC049050480068D5
:103250000FF0E6FC02905248016802980FF0F8FB6C
:10326000039004990FF09CFB83460FF0F8FC47494C
:1032700008603A4800680FF0DCFC834649490FF0CB
:10328000E7FB0590344800680FF0CAFC83463149DB
:1032900088680FF0C5FC594604900FF00FFC824679
:1032A0002E4800680FF0C5FC83463F480168504631
:1032B0000FF0CEFB594604900FF0CAFB814631480F
:1032C000059900680FF0C4FB4FF07C51039048460D
:1032D0000FF0BEFB029005990FF0BAFB83460399ED
:1032E0000FF05EFB04902848016804980FF058FB2B
:1032F000254908601048C16B4FF07E500FF0A2FBCB
:103300000390224800680FF08BFC029003990FF0A5
:103310009FFB83460848C16B1B4800680FF098FB71
:10332000594604900FF03CFB1749086018480068A4
:10333000002843DD164839E020090020480000201D
:10334000A60000205C040020A000002068000020EF
:10335000500000203C0A0020100000200C0000203B
:103360005C00002084000020C20100209C0000209E
:103370002000002080E6C547B1DC423ED048874AA5
:10338000980000208C0000209000002024000020E5
:1033900030000020000061442C0000200000C842E2
:1033A00028000020BD378635C00000200068C828EE
:1033B00004DA704800687049086005E06F480068EA
:1033C0000FF04DFC6C49086049466D4800680FF0ED
:1033D000E7FA6B490860FFF7FAFD38460FF029FC61
:1033E000644904900968674A1268881A0FF018FC4B
:1033F000654902900FF02CFB039004990FF05EFBDF
:1034000083460FF02CFC07905A4800685D4908601D
:1034100040F2DC525142079807F056F807900A2113
:103420000798FFF750F907905848816B4FF07E508E
:103430000FF008FB039007980FF0F2FB029003993E
:103440000FF006FB83465148816B4D4800680FF032
:10345000FFFA594604900FF0A3FA4949086008465C
:10346000006810F0E1FB804605214046FFF72BF98C
:1034700047490860B6F5487F73DA46480078F8B9DE
:10348000454909683C4A1268881A4FF4FA72514259
:1034900007F01AF804460A212046FFF714F90446FB
:1034A0003A48007900FB04FB4FEAEB710BEB5161EA
:1034B000C8114FF49672514207F006F8054601E034
:1034C00036480568A5EB08043048807A00FB04FB09
:1034D0004FEAEB710BEBD16148114FF496725142F8
:1034E00006F0F2FF2E4908602848007D2D49096842
:1034F00000FB04102B4908602B4A51422948006800
:1035000006F0E2FF274908600846006842F204011D
:1035100090FBF1F0224909680844214908602348DA
:10352000016850460FF03CFA18490290887F0FF06E
:1035300080FB019002990FF08BFA83464FF088418F
:103540000FF0BCFA03900FF08AFB962251420490D0
:1035500006F0BAFF12490968081A1149086003E029
:10356000FFE700200E4908601048C0F800A00120C5
:103570007EE5000024000020B8000020900000201C
:103580008C000020940000200024744920090020B1
:10359000440000203C000020BC0000203800002037
:1035A0003400002040000020200319008800002083
:1035B00070B504460D4601200AF020F90FF049F8D5
:1035C000E1B2FE4A10680CF0B1F8204670BD88B038
:1035D0000025FEF797FC0020FEF7D7FFFEF7CDFC95
:1035E000F749897B09B1012100E0002108460CF070
:1035F000A0FAF4480068F449884203D10120F34955
:10360000086007E0EF480068F149884202D10220D3
:10361000EE4908600AF054F80820FEF7DBFF58B1C5
:10362000E74890F88A0110B1012804D100E000BFFA
:1036300006F076FD00BF00BF64200AF0DFF8FEF759
:10364000C1FCE2480068032802D0012009F096F886
:10365000DB4890F88101002814DDD94890F88101F9
:10366000012809D0D64890F88101092804D0D4480F
:1036700090F88101052805D1D14890F881018DF895
:10368000040005E000208DF80400CD4981F8810197
:10369000CB4890F8980100281CDDC94890F89801A3
:1036A000012809D0C64890F89801092804D0C448D8
:1036B00090F8980105280DD1C14890F89801C049AB
:1036C00091F88111884205D0BD4890F898018DF895
:1036D000050005E000208DF80500B94981F8980142
:1036E00001A808F0BBFA0220FEF774FF08B102F04F
:1036F0000AFF06F0F4FE0E20FEF75DFF02F056FD15
:10370000054615B903200AF085F84FF40060B14969
:10371000486140000861002418E0AE48C06880F4A9
:103720000060AC49C8600846C06880F48050C8603A
:1037300019200AF063F8012009F0A3FF19200AF00C
:103740005DF8002009F09DFF601CC4B20A2CE4DB88
:103750004FF480509F49086140100861FEF762FFF6
:1037600000F0AAF99649D1F8A40103F09AFB944815
:1037700040790E2807D092484079082803D0904815
:103780004079182803D101208DF80E0002E00020B6
:103790008DF80E004FF48070FEF71CFF18B908205A
:1037A000FEF718FF08B1012000E000208DF80A00A4
:1037B0004020FEF70FFF8DF80B000120FEF70AFFF7
:1037C0008DF809000820FEF705FF80F001008DF854
:1037D00008007A48807D8DF80C007F4890F8D6006C
:1037E000C0F380008DF80D007548B0F84E01ADF8BB
:1037F00012007348B0F85001ADF81400704890F80A
:1038000052018DF80F004FF47A70ADF816004FF4A6
:103810008040FEF7DFFE20B16948B0F84A01ADF8FC
:103820001600BDF81200B0F5FA7F02DD0020ADF8F9
:1038300016006348B0F88E01ADF818006648B0F87D
:10384000D200ADF81A005E4890F88101012802D03C
:10385000092808D103E001208DF8100007E00720B7
:103860008DF8100003E000208DF8100000BF00BFAD
:1038700002A809F0C4FD9DF81C005049C875002439
:1038800006E040F2DE50554921F81400601CC4B235
:10389000122CF6DB52485349086008204749487506
:1038A000FEF798FED8B1464890F88A01052815D24F
:1038B000DFE800F00304080C100000BF494806F0E0
:1038C000FBFB0BE0474807F005F807E0454807F029
:1038D000E1F803E0434807F0C7FD00BF00BF3849E7
:1038E00091F89F0104F04DFF0120FEF773FE30B107
:1038F0004FF48060FEF76EFE08B103F0C1F940207E
:10390000FEF768FE58B12E4A92F8AC11D2F8A80121
:103910000BF000FE2A4991F8AD010BF019FE4FF4AF
:103920000060FEF757FE08B107F0E6FB09F089FEDC
:103930002D49086022484079052803D14FF4C8700A
:103940002A4908804FF47A7029490880C8202949FB
:1039500008800120284948730EF0B8FD2821002076
:103960000EF000FD55E001F0B1FC09F06AFE2349BC
:103970000968401AB0F57A7F4BD309F062FE1F49FF
:1039800008601F480088B0F5FA7F3BDD1A48407890
:1039900098B1002408E00A48B0F88E0100B20F493F
:1039A00021F81400601CC4B2032CF4DB0A48B0F800
:1039B000D00000B20949C88029E028E0540A00205C
:1039C0005C040020D803002000127A00CC00002004
:1039D000001BB7000010014020090020880C0020C7
:1039E000C3250108F8000020EC000020C0010020E1
:1039F000C4010020C2010020740C0020D00000206F
:103A0000D400002007480088401C064908800EF0BA
:103A100020FEA8E70449B1F8441108B200F0A8FA62
:103A200000BFFEE7D40000205C040020014601EB4B
:103A30008102FA4800EB4200B0F9040012280CDAC7
:103A400008290ADA01EB8102F44800EB4200B0F9E0
:103A50000400F34A32F91000704701EB8102EF488D
:103A600000EB4200B0F90400F6E7024602EB8203E5
:103A7000EA4800EB4300008901238B40184202D042
:103A80004FF0FF3070470120FCE710B5002410E034
:103A90004FF48040FEF79EFD18B1E248B0F84A01AD
:103AA00002E0E048B0F8440100B2DF4921F8140018
:103AB000641C0C2CECDB10BD70B5DA484079DB4996
:103AC00001EBC000407808B1012000E00020D84997
:103AD00088752020FEF77EFD10B10120D44988753D
:103AE000D0484079172822D100241DE0CD4910315B
:103AF00001EB0411086800210FF0FEF800D115E079
:103B0000CC4800EB0411C748103000EB0415D5E990
:103B10000030D5E902250E1D25C60B60C648007889
:103B2000401CC5490870641C0C2CDFDB25E0BD4837
:103B30004079BE4911F83000BF490870B948407952
:103B4000BA4901EBC0004068B8B1002411E0B548A3
:103B50004079B64901EBC000406800EB0410B5495C
:103B600001EB041190E82C00C06881E82C00C860CB
:103B7000641CB14800788442E9DBAD48807D38B3ED
:103B8000A8484079AD4911F83000AD490870A54802
:103B90004079AA4901EBC0004068C8B1002413E095
:103BA000A0484079A54901EBC0004068C4EBC401BE
:103BB0000844C4EBC401A34A114402680A60828825
:103BC0008A8080798871641C9D4800788442E7DB94
:103BD0004FF48040FEF7FEFC70B397480078012850
:103BE0002ADD002424E0934901EB041188684FF09A
:103BF0007C510EF02DFF8F4901EB041188608D4937
:103C000001EB041148684FF07C510EF021FF894907
:103C100001EB04114860874901EB0411C8684FF0BB
:103C20007C510EF015FF834901EB0411C860641C40
:103C3000814800788442D6DB7A484079082807D04A
:103C4000784840790E2803D076484079182828D142
:103C500001207D49087473484079182824D1002434
:103C60001CE0C4EBC4016F48D0300844807800B930
:103C700016E0C4EBC40073490144C4EBC4026948B4
:103C8000D030104402680A6082888A808079887106
:103C90006B480078401C6A490870641C102CE0DBFB
:103CA00002E0002068490874FFF7EFFE70BD10B510
:103CB0000146491C002018E00022C0EBC004594B0B
:103CC000D03323449A71C0EBC004564BD033234405
:103CD0009A70C0EBC004534BD03323445A70C0EBEE
:103CE000C004504BD0331A55401C1028E4DB002090
:103CF00012E0524A02EBC1025268C0EBC003134407
:103D0000C0EBC004474AD03222441C6814609C882F
:103D100094809B799371401C484A12F8312082426A
:103D2000E7DC10BD70B50146491C002006E0002309
:103D30003C4A103202EB00121360401C0C28F6DBE8
:103D40003A4A02EBC1025268BAB1002010E0374A89
:103D500002EBC102526802EB0013324A103202EB4E
:103D6000001293E87000DB6882E87000D360401CAA
:103D70002E4A12F831208242E9DC70BD10B52C4881
:103D8000807D00B910BD274840790E287CD008DC22
:103D900001281AD004280BD0052831D0082871D169
:103DA00063E0142854D015286FD01828F7D185E087
:103DB0002648008981B2002009F00EFC2348408982
:103DC00081B2012009F008FCBEE014487E3890F86A
:103DD000D50030B11D48408981B2002009F0FCFBBC
:103DE0000DE01948407830B11848408981B2002070
:103DF00009F0F2FB03E00021084609F0EDFBA3E027
:103E00001248008881B2002009F0E6FB0F48408884
:103E100081B2012009F0E0FB96E035E09E09002028
:103E2000880C00205C040020A40A002034570108FC
:103E3000540A0020BC0A0020D6000020A058010827
:103E4000D70000207C0B0020740C0020D80000203C
:103E5000FA48008981B2002009F0BEFBF74840898A
:103E600081B2012009F0B8FB6EE0F448C08881B24D
:103E7000002009F0B1FBF148008981B2012009F06E
:103E8000ABFB61E04FE000E000BFEC48C08881B2CE
:103E9000002009F0A1FBE948008981B2012009F066
:103EA0009BFBE648408981B2022009F095FBE3487C
:103EB000808981B2032009F08FFB45E0DF48C0888C
:103EC00081B2002009F088FBDC48008981B2012022
:103ED00009F082FBD948408981B2022009F07CFBBD
:103EE000D648808981B2032009F076FB0120FEF7D5
:103EF00071FBB8B1D148008881B2042009F06CFB95
:103F0000CE48408881B2052009F066FBCB48808806
:103F100081B2062009F060FBC848C08981B2072041
:103F200009F05AFB10E02020FEF754FB58B1C348BB
:103F3000008881B2002009F04FFBC048408881B260
:103F4000012009F049FB00BF00BF00BF1AE710B510
:103F5000002408E0BA4830F8140081B2204609F085
:103F60002EFB601CC4B2B74800788442F2DB10BD5F
:103F700070B50546002404E0B14820F81450601CD8
:103F8000C4B2B04800788442F6DBFFF7E0FF70BDB2
:103F90002DE9F04F87B0AC48807A60B1AB4800881B
:103FA000ADF80400A9484088ADF80600A74880880D
:103FB000ADF808000BE0A6480088ADF80400A4485E
:103FC0004088ADF80600A2488088ADF808009C48FB
:103FD0000088ADF80A009F48B0F88E019E49098913
:103FE000401A00B2ADF80C009A48B0F88E019A4918
:103FF0004989401A00B2ADF80E009648B0F88E011B
:1040000095498989401A00B2ADF810009148B0F87E
:104010008E019149C989401A00B2ADF812008D484D
:10402000B0F88E018C490988401A00B2ADF814002E
:104030008848B0F88E0188494988401A00B2ADF826
:1040400016008448B0F88E0183498988401A00B26E
:10405000ADF818007F48B0F88E017F49C988401A32
:1040600000B2ADF81A00002407E02046FFF7DEFC9E
:10407000724921F81400601CC4B2082CF5DB00243E
:10408000BBE0C4EBC40075490844807940B1C4EB7F
:10409000C4000844807914307149085C00287CD041
:1040A000C4EBC4006D490F5CC4EBC4000844457800
:1040B00007EB87016B4800EB4100418807EB870263
:1040C000684830F81200081A86B2C4EBC401634A8B
:1040D000114491F904107143642291FBF2F13046CE
:1040E00006EBD072A1EB62010FFA81F8C4EBC401B8
:1040F0005A4A114491F905107143642291FBF2F17F
:1041000006EBD072A1EB62010FFA81F9C4EBC40097
:1041100052490844C07830B901A830F81500524916
:1041200021F8140042E0504830F9140001A931F997
:104130001510884218DA4C4B33F91430C4EBC40C18
:10414000DFF818A1D4449CF803C003EB0C0001ABCA
:1041500033F91520444B33F9141006F0B5F900B2C9
:10416000414921F8140021E03F4830F9140001A929
:1041700031F91510884219DD3B4B33F91430C4EB8B
:10418000C40CDFF8D8A0D4449CF803C0A3EB0C0007
:10419000354B33F9142001AB00E028E033F915105A
:1041A00006F092F900B2304921F814002946384649
:1041B000FFF75BFC83462C4830F91400C4EBC401C4
:1041C000264A114491F902104843642190FBF1FA08
:1041D0004A464146504606F077F9184931F917101A
:1041E0000BFB001000B2154921F8170003E0002076
:1041F0001D4921F81400601CC4B21C480078844298
:10420000FFF63FAF002413E004EB8401154800EBF8
:10421000410090F90600094931F91410484364211E
:1042200090FBF1F000B2054921F81400601CC4B203
:10423000082CE9DB07B0BDE8F08F0000D8000020B3
:104240008C0A0020D6000020740C00207E01002083
:10425000920100205C040020880C00207C0B0020D0
:10426000D20C00209E0900206C0A0020D7000020FC
:104270002DE9FC5FFB480078032826DDFA4BB3F9F3
:104280000430002B03DDF84BB3F9043003E0F64BA8
:10429000B3F904305B4203F16402F34BB3F9043029
:1042A000002B03DDF04BB3F9043003E0EE4BB3F920
:1042B00004305B426FF06306F11AEC4BB3F9040073
:1042C00006F002F900B2E9498880E6480078012842
:1042D00056DD002450E0E64991F9D4104942E34A02
:1042E000B2F9042001FB02F00EF09AFC8146E1488D
:1042F00000EB0410C16848460EF0AAFB0746DB49F4
:10430000B1F900000EF08CFC8246DA4800EB041094
:10431000416850460EF09CFB8146D449B1F9020039
:104320000EF07EFC0090D34800EB041081680098EA
:104330000EF08EFB8246CC49B1F906000EF070FCFF
:104340000090CC4800EB0410016800980EF080FB50
:10435000834651460EF024FB494601900EF020FBA7
:10436000804639460EF01CFB06460EF078FC00B283
:10437000C14921F81400641CBA4800788442AAD3C9
:10438000BE48007CB0B1BD48407830B9BC48B0F8F8
:10439000440100B2B84908800CE0B94BB3F842219F
:1043A000B3F84011B04BB3F9060006F08DF800B237
:1043B000B1490880B24840790E2811D008DC0128A4
:1043C00010D004280DD0052811D0082832D106E0DD
:1043D000142808D0152807D018282BD100BF00BFFB
:1043E00000BF00BF00BF00BFFFF7D2FD22E0A04822
:1043F00090F98400A349B1F902104843322190FB9F
:10440000F1F30020FFF712FB184400B29E49088028
:10441000974890F98E009B49B1F90010484332212A
:1044200090FBF1F30120FFF701FB184400B296491D
:10443000488000BF00BF2020FEF7CCF800286BD0DA
:104440000020FFF7F3FA904908800120FFF7EEFA09
:104450008D4948808D48007AE8B3854890F8D600A9
:1044600010F0020F38D0824890F98400404285490C
:10447000B1F902104843322190FBF1F17C4890F9E8
:104480008E00804AB2F900205043322290FBF2F0B5
:10449000081A7D490988081A00B27B4908807448C7
:1044A00090F9840040427749B1F902104843322123
:1044B00090FBF1F16E4890F98E00724AB2F900203B
:1044C0005043322290FBF2F008446F494988084477
:1044D00000B26D4948801FE0654890F98400694941
:1044E000B1F902104843322190FBF1F06649098886
:1044F000084400B2644908805D4890F98E00614923
:10450000B1F900104843322190FBF1F05E4949882F
:10451000084400B25C494880002417E004EB84069C
:10452000534B7E3303EB4603B3F9022004EB8406BE
:104530004F4B7E3333F91610534B33F9140005F00B
:10454000C3FF00B2504921F81400641C082CE5D3C5
:10455000474890F8D60010F0040F11D04C48C07DA9
:10456000061F002409E0221D4A4B33F8122091B2A5
:10457000A219D0B209F030F8641C042CF3D300BFA8
:104580003D48B0F90050012408E03B4830F91400E0
:10459000A84202DD384830F91450641C31480078D4
:1045A0008442F2D300248FE03548B0F84201A8429B
:1045B0000BDA314830F814003149B1F84211691A68
:1045C000401A00B22C4921F814004FF48040FEF745
:1045D00001F828B32F48B0F906002949B1F88E1127
:1045E00088420EDD264BB3F84221B3F84811224B26
:1045F00033F9140005F068FF00B21F4921F81400D8
:1046000058E01F4BB3F84621B3F844111A4B33F965
:10461000140005F059FF00B2174921F8140049E0D1
:10462000174BB3F84221B3F84011134B33F9140080
:1046300005F04AFF00B2104921F814001548B0F9FE
:1046400006000F49B1F89011884230DA1020FDF7CA
:10465000C1FF08BB0A48B0F8400100B2064921F882
:10466000140027E0D60000207E01002092010020E7
:1046700020090020BC0A00208C0A0020740C0020B5
:104680005C0400205C000020D8000020D20C002038
:10469000540A0020880C00200F48B0F8440100B2F2
:1046A0000E4921F8140001200D49487402E0002051
:1046B0000B4948740A48407828B90A4830F8140071
:1046C000064921F81400641C074800788442FFF46E
:1046D0006BAFBDE8FC9F00005C0400208C0A00204A
:1046E000740C0020A40A0020D60000202DE9F0411F
:1046F00004460D4616464FF000081BE0002710E068
:10470000FE48C06880F48050FC49C860012008F071
:10471000B8FF284609F072F8002008F0B2FF781CB4
:10472000C7B2A742ECDB3C2009F068F808F10100B1
:1047300000F0FF08B045E1DBBDE8F0812DE9F04F66
:1047400085B0EF48B0F90600EE49C98C884202DA1C
:104750004FF064081DE0EA48B0F90600B0F5FA6FC2
:1047600012DAE748B0F90600E649C98C401AE54973
:1047700091F825104843E349C98CC1F5FA6190FBD3
:10478000F1F0C0F1640804E0DE4890F82500C0F1C3
:1047900064080024C7E0DA4830F91400DA49B1F8B7
:1047A0008E11401A002807DDD54830F91400D6498B
:1047B000B1F88E11401A06E0D348B0F88E01D04906
:1047C00031F91410401AB0F5FA7F18DACC4830F9F4
:1047D0001400CD49B1F88E11401A002807DDC848F1
:1047E00030F91400C849B1F88E11401A09E0C648E2
:1047F000B0F88E01C24931F91410401A01E04FF4AB
:10480000FA700546022C3BD0BE4890F8760050B1B5
:10481000BC4890F87600A84204DABA4890F87600CE
:104820002D1A00E00025642095FBF0F6B749701CB6
:1048300031F9100031F91610401A06EBC60101EBF0
:104840000611A5EB81014843642190FBF1F0AF49CB
:1048500031F81610084400B2AD4921F81400A948F7
:1048600090F8230068434FF4FA7190FBF1F0C0F127
:104870006407B8B200FB08F0642190FBF1F726E072
:10488000A04890F8770050B19E4890F87700A84271
:1048900004DA9C4890F877002D1A00E000259A4829
:1048A00090F95C014042684300B2994921F8140034
:1048B000944890F82400002D01DD294600E069426B
:1048C00048434FF4FA7190FBF1F0C0F164078D4852
:1048D000401C005D7843642190FBF1F08D49085540
:1048E00088480B30005D7843642190FBF1F08A49E1
:1048F000085584481530005D7843642190FBF1F041
:10490000864908557E4830F914007F49B1F88E1168
:10491000884207DA7E4830F81400404200B27C49F1
:1049200021F81400641C032CFFF635AF764AB2F868
:104930009011734AB2F906004FF4FA6205F0C4FD13
:1049400005467148B0F89001281A4FF47A7148432F
:104950006D49B1F89011C1F5FA61B0FBF1F5642031
:1049600095FBF0F66E49701C31F9100031F9161004
:10497000401A06EBC60101EB0611A5EB8101484385
:10498000642190FBF1F0664931F81610084400B23A
:104990005F49C8806348407A002855D06249B1F920
:1049A0000010624AB2F90020881A0EF039F98246E6
:1049B0005F490EF04DF881465E490EF07FF8049095
:1049C00004980FF071F8039004980FF053FC0290D4
:1049D0004F49B1F900000EF023F9009002990EF052
:1049E00037F882464A49B1F902000EF019F90090F1
:1049F00003990EF02DF8834651460DF0D1FF814604
:104A00000EF02DF900B201904149B1F902000EF00B
:104A100007F9009002990EF01BF882463C49B1F963
:104A200000000EF0FDF8009003990EF011F8834697
:104A300051460EF007F881460EF011F900B23449E4
:104A400008800198488000BF0220FDF7C3FD0028C0
:104A500053D0394800683949098808443649086004
:104A600037480078401CC0B235490870062190FBD9
:104A7000F1F201FB120000286AD132490868C1171F
:104A800000EB51712F4A1268A2EBE1012D4A11602F
:104A9000002007F082F92B49096808442949086079
:104AA000D1F800904FEAE97109EB5171C1F3CF00E1
:104AB00001F0F5FC24490880134890F88101002892
:104AC00067DD22490868C11700EB51711F4A12685F
:104AD000A2EBE1011D4A1160022007F05EF91B49BB
:104AE0000968084419490860D1F800904FEAE97153
:104AF00009EB5171C1F3CF002BE05DE000100140E4
:104B0000880C0020200900205C040020AC0C002050
:104B10007E010020880100208B0100208E010020F2
:104B2000BA0C0020740C0020F80100206E01002057
:104B3000DB0F49400000344338010020F000002022
:104B40002401002028010020700100202C010020F9
:104B50001FE001F0C2FCFE49086008460068FD49FC
:104B6000096848434FF47A7190FBF1F0C117FA4A93
:104B7000D2E90032C0185141F74A03C2F74A002374
:104B8000F54903C90DF00AFEF54908600020F14916
:104B90000860F4480088F4490988884203DC012051
:104BA00005F054FB08E0EF480088F0490988884286
:104BB00002DC022005F04AFB05F01AFCEC480088F4
:104BC000002803DD0220FDF7EDFC18B9E948008854
:104BD000002806DDE848C06880F48050E649C860D7
:104BE0000FE0E648807818B14FF48050E249086140
:104BF000E248407818B14FF48050DF49486106F030
:104C000064FA8020FDF7E6FC70B1DD480068DD49FC
:104C10000968401A08D4DA4800684CF25031084458
:104C2000D849086009F096F9D5480068D64909685E
:104C3000401A15D4D148407B78B90020CF498870FC
:104C4000CD48C06880F48050CB49C860CC4800682B
:104C5000CE490844CC49086002E00120C749887069
:104C600003F0F8FBCA48007830B94FF40060FDF754
:104C7000B1FC08B106F066FA2020FDF793FCA8B15C
:104C8000BF480068C3490968401A0FD4C248007879
:104C900005280BDBBA480068C0490844BD490860D4
:104CA000B548C06880F40060B349C860BC488068FB
:104CB00018B1BB488168BB48884705B0BDE8F08F94
:104CC00010B50446B849085D08F090FC10BD70B5F9
:104CD0000820FDF77FFC68B1002408E0E0B2B3498A
:104CE0000968884700B2B24921F81400641C082CF6
:104CF000F4DB47E000243EE0E0B2AC4909688847B5
:104D0000054640F2EE20854203DB40F6CA008542AC
:104D100002DDA848B0F88E5129B2A74A1068C21720
:104D200000EB92729210A0EB8202A44B03EBC4033F
:104D300023F8121000209E4921F8140000260DE0EF
:104D40009E4800EBC40030F81600994931F8141061
:104D5000084400B2964921F81400761C042EEFDBBB
:104D6000934931F91400C11700EB91718910904AF1
:104D700022F81410641C082CBEDB8F480068401C0D
:104D80008D49086070BD10B57A48008808BB7B4823
:104D90008078F0B17948407818BB01207749487095
:104DA0008748B0F90000874908804FF48070FDF70C
:104DB00011FC50B17148C07A38B1774800780528A5
:104DC00003DB072005F042FA0BE0062005F03EFA6F
:104DD00007E06A48407820B90122FF210220FFF74E
:104DE00085FC10BD10B56548407858B10020634976
:104DF0004870052005F02AFA7348006810B10020B9
:104E00007149086010BD70472DE9F04F85B000274B
:104E100000200390804602906C48B0F90200002800
:104E200003DD6A48B0F9020003E06848B0F9020007
:104E300040426649B1F90010002903DD6349B1F928
:104E4000001003E06149B1F90010494288420DDDCC
:104E50005E48B0F90200002803DD5C48B0F90200AA
:104E600011E05A48B0F9020040420CE05748B0F94E
:104E70000000002803DD5548B0F9000003E0534866
:104E8000B0F900004042054600245AE13B48C07892
:104E900010B93A480079E8B3022C47DA4C4B33F9A1
:104EA0001430DFF828C13CF914C04FF0020E0EFB9D
:104EB0000C30404BB3F86821B3F86831594205F023
:104EC00003FB444931F91410411A434830F91400E6
:104ED0000E1841482A38007A7043642190FBF1F79C
:104EE0003D482A38007F00EB80023B482A38007F8B
:104EF000404200EB8001384605F0E6FA07463749A4
:104F000051F82410881942F21072514205F0DCFA6F
:104F1000324900E00AE041F82400084650F8240035
:104F20002D492A39897C4843001303901348C078DF
:104F300020B11248007908B9022C71D1234830F908
:104F4000140000EB8000010123482938005D47E090
:104F5000740100203801002030010020407E05004F
:104F60007801002070010020BE010020BC0100205B
:104F7000C0010020C401002000100140740C00207A
:104F8000E80000203C0100202001002020A10700B3
:104F90000000002040010020A0010020F049020094
:104FA000740E00207C010020DE050020F8000020A7
:104FB000880C00205C04002044010020F80B002035
:104FC000F80100206E010020140100207E01002065
:104FD000020100205C0000204A0900201801002086
:104FE00091FBF0FAFE4830F91400AAEB000AFD48E4
:104FF00030F91480FC4951F8241001EB0A004FF4F9
:105000007A52514205F060FAF74941F82400F44819
:1050100030F91400002804DDF14830F9140004E0F0
:1050200026E0EF4830F914004042B0F5207F10DC54
:10503000022C12D1EB4830F91400002803DDE948B6
:1050400030F9140003E0E74830F9140040426428C6
:1050500003DD0020E44941F82400E34850F824002F
:105060007D2190FBF1F0E149095D484380110290F8
:10507000DF480079B8B1022C15DAC5F5FA7078432B
:1050800008FB05004FF4FA7190FBF1FBC5F5FA71CE
:1050900003984143029800FB05104FF4FA7190FB0E
:1050A000F1F004900BE0D248C07828B1022C03DA6A
:1050B000BB460398049002E0C34602980490C84996
:1050C00031F91410CB4A125D51430A2291FBF2F0E0
:1050D000C11700EB5171ABEBE10BC14830F9140083
:1050E000C54931F91410A0EB0109BD4830F814008E
:1050F000C14921F81400C14850F82400C04951F8B2
:105100002410084400EB09010091BC4850F8240029
:10511000BB4941F82400B94840F82490B9490A5DD8
:10512000009902FB01F0C11700EBD1614911019117
:10513000049858440199401A00B2B34921F8140068
:10514000641C032CFFF6A2AE05B0BDE8F08F2DE97C
:10515000FF5F00270024A6E0022C0BD1A3480B38E8
:1051600090F824001B309F49B1F9041048434011C6
:1051700003903FE09B4931F91410A44A32F91420FE
:1051800088184FF4FA72514205F09EF9A04931F99E
:105190001410411A95481F3030F91400084400904B
:1051A0000DF03EFD9B4901900DF088FC02900DF042
:1051B00056FD07468E48C078B0B98C480B3890F839
:1051C00023001B30874931F9141048430011039024
:1051D0008748007970B185480B38807C7843039903
:1051E00001EB2020039005E080480B38007A7843DB
:1051F000001103907A4830F914100398451A7B483F
:105200000A38005D68434FEAE019774850F82410E7
:10521000814800886843C2127448005D02FB001098
:10522000714941F8240051F824004FF40012514212
:1052300005F04AF96C4941F82400084650F824006A
:105240004FEA603A754850F824002E1A734840F827
:1052500024507148008800114FF6FF7191FBF0F067
:10526000704386116E4850F824006E4951F824109E
:10527000084400EB06086A4850F82400694941F8E0
:105280002400674840F8246058480A30005D00FB5D
:1052900008F04FEA202B09EB0A00584400B25A49A3
:1052A00021F81400641C032CFFF656AFBDE8FF9FE5
:1052B00010B1012804D000BF5B495C4A116003E0D3
:1052C0005B495A4A116000BF00BF70472DE9FF5F7C
:1052D000002500270026002003900820FDF77AF91A
:1052E000D8B1544890F88A01052815D2DFE800F0BB
:1052F0000304080C100000BF04F00FFF03900BE044
:1053000005F016FB039007E005F0D3FB039003E0E4
:1053100006F09EF8039000BF00BF47480068474969
:105320000968401A02D50398002857D0002003903E
:105330004148006844F62061084440490860FFF78E
:10534000C6FC4FF48040FDF745F920B13C48007899
:1053500008B9FFF747FD002415E0AD10394830F9D2
:1053600014003449B1F89011884201DD45F0800500
:10537000344830F914002F49B1F89211884201DA0B
:1053800045F04005641C042CE7DB2F48007885427B
:1053900009D12E480078FA2808DA2C480078401CF9
:1053A0002A49087002E00020284908702648057044
:1053B0004FF48040FDF70EF988B11E48B0F88E0119
:1053C0001C49B1F84C11401A1E49B1F90610884227
:1053D00048DA1848B0F88E01164939E0E0E341E0B8
:1053E000500000207E010020EC0B00202B09002043
:1053F000740C00208801002048010020380C002097
:10540000440C00208E0100209201002002010020A7
:105410005C00002000002041F0000020680C00200B
:10542000500C00205C0C0020094E0008FC000020FD
:105430004F5100085C040020E800002050010020CB
:10544000D20C0020880C00204F0100204E010020CB
:10545000B1F84C110844F849B1F90610884201DD51
:1054600001260DE04FF48040FDF7B4F840B9F24852
:10547000B0F90600F149B1F89011884200DA01262E
:10548000A6B10020EE49086048608860ED490860D8
:105490004860ED48B0F84600002807DDEB4800788A
:1054A00020B1EB48007808B1FFF76DFCE648B0F892
:1054B000460000280FDDE548007860B9E4484078F0
:1054C00048B1DE4890F8950110B1FFF78BFC02E07F
:1054D0000EB1FFF787FCDF48007814281CD1DC48A8
:1054E0004078D0B1D848B0F8460028B9DA480078FA
:1054F0005F2801D1FFF776FCD04890F8940100288E
:105500000AD0D148B0F846000028E7D1D248007848
:105510007D28E3D1FFF766FCC2E00024CE48007886
:10552000572819D14FF47A70CC4908804FF4807015
:10553000FDF750F808B103F01EFE0420FDF732F825
:1055400010B10A20C64908800820FDF72BF808BBD7
:105550000020C449088021E00420FDF73BF8C8B1D1
:10556000BD4800785A2819D1BF48007830B10020D2
:10557000BD4908700120BD4908700FE0BC480078A3
:1055800080F00100BA4908700846007818B10A2076
:1055900004F05CFE02E00B2004F058FEAE480078F8
:1055A0005D2801D101240AE0AB4800785B2801D1D5
:1055B000022404E0A84800785E2800D103246CB1DE
:1055C000601EC1B29D4880F8C01400210846FCF757
:1055D00072FDE2B228210220FFF788F89A48B0F85D
:1055E000460030B99C4800786F2802D1FFF7CBFB0A
:1055F0001EE0924890F8940150B19348B0F84600EC
:1056000030B9954800787E2802D1FFF7BCFB0FE047
:1056100091480078972804D14FF4C87095490880C4
:1056200006E08D480078A72802D1012088498873B8
:10563000002489480078BB2807D18348808D801CCE
:1056400001B281488185012422E083480078B7288F
:1056500007D17D48808D801E01B27B488185012461
:1056600016E07D480078BE2807D17748408D801C21
:1056700000B27549488501240AE077480078BD28C2
:1056800006D17148408D801E00B26F4948850124C3
:1056900034B101210846FCF70EFD00206D49087069
:1056A0000420FCF797FF28B37148007898B1684848
:1056B000407880B16048B0F906006049B1F89011B7
:1056C000884208DD6148007828B932206A4908809C
:1056D0000020674908705D48407C60B167480078E9
:1056E00028B96148007810B9322063490880012048
:1056F000624908700BE05C48007840B1544840783B
:1057000028B9002058490870012058490870002421
:1057100038E0201D484931F9100040F21451884208
:1057200001DA012000E0002004EB44018840211D43
:10573000414A32F9111040F21452914209DD211D03
:105740003D4A32F9111040F2A462914201DA01217E
:1057500000E0002104EB4402521C91400843211D4B
:10576000354A32F9111040F2A462914201DD012163
:1057700000E0002104EB4402921C914008433843AE
:1057800087B2641C042CC4DB00240CE02E48463095
:1057900030F814003840002801DD012000E000202E
:1057A0002A490855641C182CF0DB2848407848B971
:1057B000254890F8CE0000EB80003149B1F9001087
:1057C000884224DA0220FCF7EDFE00B32048C078BE
:1057D00030B900201B490860486001201C49C8708E
:1057E0004FF40040FCF7F6FEA8B1174890F8CE0041
:1057F00000EB80002249B1F9001088420BDA20202A
:10580000FCF7D0FE38B101201149887403E0002074
:105810000F49C87088740D48807898B300200C49EF
:10582000C8700846007970BB0020064908604860CF
:105830000120074908712AE0880C00205C04002040
:10584000EC0B00201801002020090020D20C0020C1
:10585000740C00204E0100204F010020C4010020E4
:10586000C2010020F80100200C0100200D010020E1
:105870000B010020C0010020100100200E010020BB
:10588000F200002000E002E00020FE490871FE481E
:10589000007810B90120FB490870FA48C07810B9A7
:1058A000F848007920B14FF40060F849486103E0FE
:1058B0004FF40060F54908610420FCF773FE38B32B
:1058C000F148C07898B1EF48807998B90120ED4946
:1058D0008871EF480068EF490860EF48C088EF49D9
:1058E00008800020EE490860EE49086002E00020D0
:1058F000E44988714FF40050FCF76CFE40B1E24877
:10590000007930B1DF48C07B10B90120DD49C87390
:1059100002E00020DB49C8730220FCF743FE18B9FF
:105920000820FCF73FFE30B3D748407958B1D5483E
:10593000407958B90120D3494871DB48B0F90000DB
:10594000DA49088002E00020CE494871CE488079CB
:1059500030B1CC48407A30B90120CA49487202E0DF
:105960000020C8494872C848C07920B1CE48B0F973
:105970000000CF4908802020FCF714FEA0B3C148E6
:10598000C07A90B3CB48007805287EDBBE48807A89
:1059900010B9BC48807CC0B1BA48C079C0BB0120F6
:1059A000B849C87100200872C3490870C349081F6C
:1059B00004F09DFA0220C2490870C2480088C2491A
:1059C00088600120AF49C8745BE00020AD49C87110
:1059D000AD48C07AF0B3B048B0F90000002805DD4A
:1059E000AD48B0F9000005E055E04EE0AA48B0F936
:1059F00000004042B549B1F8E210884233DAA648C7
:105A0000B0F90200002804DDA348B0F9020004E068
:105A100037E0A148B0F902004042AC49B1F8E210C9
:105A2000884220DA9748007A58BB012095490872CD
:105A30000020A1490870A6480068A3490860A4484E
:105A400040684860091D081F04F051FA01209C4974
:105A5000087000E007E09B4800889B4988600020B0
:105A60008849C8740DE00020864908729248007881
:105A700038B901209049087004F0D0F9002081491C
:105A8000C8740C2004F0E2FB05E000207D49C871D9
:105A900008728B4908707C48007B30B17948807C63
:105AA00018B901207749887202E000207549887290
:105AB00088484079082807D0864840790E2803D0C6
:105AC0008448407918283AD100206E4948724FF432
:105AD0000070FCF77FFD90B37C4890F8CE0000EB9F
